:0300000002000EED
:0C000E00787FE4F6D8FD75811A020055D9
:10015600011A00010900010800010A000119000A3C
:0B0166000B3F065B4F666D7D077F6F4F
:03000B000200D21E
:1000D200C0E0C0D0758CD8758AF0E5086022050AA8
:1000E200E50AC394644019750A00051AE51A943C9E
:1000F200400E751A000509E509943C400375090094
:05010200D0D0D0E03276
:10013300E50975F00A84F515E50975F00A8485F07B
:1001430016E51A75F00A84F517E51A75F00A848521
:03015300F018227F
:10009A0075A0FF74152519F8E6240BF8E6F590E526
:1000AA001914600F1460111460132403701253A002
:1000BA00FE800D53A0FD800853A0FB800353A0F7D8
:0800CA00E519045403F51922A5
:10017200758901758CD8758AF0D2A9D2AFD28C223A
:1001070012017212013312009A20B00F30B0FDE5D0
:100117000870047F0180027F008F0820B1E530B1AD
:0C012700FDE4F51AF509F50AF50880D78B
:10001A00020107E493A3F8E493A34003F68001F2F4
:10002A0008DFF48029E493A3F85407240CC8C333E7
:10003A00C4540F4420C8834004F456800146F6DFB6
:10004A00E4800B0102040810204080900156E47EEF
:10005A00019360BCA3FF543F30E509541FFEE493AB
:10006A00A360010ECF54C025E060A840B8E493A372
:10007A00FAE493A3F8E493A3C8C582C8CAC583CA9D
:10008A00F0A3C8C582C8CAC583CADFE9DEE780BE55
:01017100008D
:00000001FF
